:1000000000308A00362C0000FF00030E8301A1009F
:100010000A08A0008A010408A2007708A300780853
:10002000A4007908A5007A08A6007B08A70083131E
:1000300083128C308400001C1F280C1838288C3048
:100040008400001D25280C193B2822088400230861
:10005000F7002408F8002508F9002608FA00270808
:10006000FB0020088A00210E8300FF0E7F0E09008E
:100070008A110A12FB288A110A12802B0A108A1090
:100080000A11820728340C34013406340A108A100D
:100090000A11820758345834583458345834583474
:1000A00000340A108A100A1182070C345334503479
:1000B00049344E3420342034203420342034203449
:1000C000203420342034523450344D340034F03055
:1000D0008316860083120615000006140000060829
:1000E000060E0F39D60006100000061400000608A0
:1000F000060E0F39D50006100030831686008312D5
:10010000560EF700F030F70577085504F800003474
:10011000560EF039F7000F30060577048600000010
:100120000614922806100034861067207808D5003F
:10013000D51B9528531C86105318861400000611F1
:1001400000000610540ED5000F30D5055508D60016
:10015000882054080F39D500D60088200034500B71
:10016000B228B5284030D100B628D10101304F0265
:10017000D10751088038D200D3015208D40094200E
:1001800000344F308400831300080319D528013050
:10019000F800F701F70BCA28F80BC9284A30F70016
:1001A000F70BD028D328800BC72800344E080C3A10
:1001B0000319E128063A0319E928023A0319EF283E
:1001C000F428D3010130D40094200230CF00C120A4
:1001D000FA280130CF000230D000AF20FA28D30136
:1001E0001030D4009420FA280130D3004E08D400F7
:1001F0009420FA280034AD0A2D08033C0318122974
:100200000430AD000630CF000130D000AF20C10176
:1002100041084620C10AF700CE00D6200630410230
:10022000031D08290C108A110A1225284E080319EB
:100230008629D600520803198629D60703182729CC
:100240007F30D602031C8629031986292B29813089
:10025000D607031886295608F700F801F901FA01B4
:100260004F08DA00DA175008D9005108D8001830C2
:10027000D600D701581C54295508FA07031C4629F3
:10028000F90A031D4629F80A0319D7175408F90774
:10029000031C4D29F80A0319D7175308D000D017AB
:1002A0005008F8070318D717D70DF80CF90CFA0CFB
:1002B000DA0CD90CD80C0310D60B39290130F7070A
:1002C00003188629F81B6B29DA0DFA0DF90DF80DC4
:1002D000F70303198629DA1F7C29FA0A031D7C29F2
:1002E000F90A031D7C29F80A031D7C29F80CF90C76
:1002F000FA0CF70A031986294F08D7005308D706C6
:10030000D71F8429F8178A29F8138A29F701F801D9
:10031000F901FA01003445080319502AD1004908AF
:100320000319502AD102031C9A297F30D1070318E0
:10033000502AA0298130D102031C502A0319502AC7
:100340005108F700F801F901FA01D0014608CF0081
:10035000CF174708CE004808CD001930D1004C080F
:10036000CD020318C3290130CE020318C329CF02DE
:100370000318C329D0020318C329D00ACF0ACE0A12
:100380004C08CD07F5294B08CE020318DE290130B1
:10039000CF020318DE29D0020318DE29D00ACF0AC3
:1003A0004B08CE074C08CD07031CF529CE0A031DC8
:1003B000F529CF0A031DF529D00AF5294A08803806
:1003C000CF020318F4290130D0020318F429D00A0F
:1003D0004A088038CF074B08CE07031CD229CF0A22
:1003E000031DD229D00AD2297A14D10BF829032A65
:1003F0000310CD0DCE0DCF0DD00D0310FA0DF90D5C
:10040000F80DD20DAF29521C0B2A0310F80CF90C71
:10041000FA0CD20C0E2AF7030319502AD21B372AE2
:100420000310CD0DCE0DCF0DD00D4C08CD0203180D
:10043000232A0130CE020318232ACF020318232ACD
:10044000D002031C462A4B08CE0203182E2A013084
:10045000CF0203182E2AD002031C462A4A088038ED
:10046000CF020318372A0130D002031C462AFA0AA9
:10047000031D462AF90A031D462AF80A031D462AC7
:10048000F70A0319502AF80CF90CFA0C4608D100A7
:100490004A08D106D11F4E2AF817542AF813542AB5
:1004A000F701F801F901FA010034F701F801F90147
:1004B000FA01D601D701D801D901550854045304D3
:1004C00052040319932A2030DA000310CE0DCF0D09
:1004D000D00DD10DD60DD70DD80DD90D5508590217
:1004E000031D7C2A54085802031D7C2A5308570216
:1004F000031D7C2A52085602031C8D2A5208D6027C
:100500005308031C530FD7025408031C540FD8027E
:100510005508031C550FD9020314F70DF80DF90DFA
:10052000FA0DDA0B652A5630840083130034040870
:10053000C6004508C8000319B62A4408D10043087C
:10054000D0004208CF004108CE00D501D4012030B0
:10055000D3008230D20016217A08C4007908C30083
:100560007808C2007708C100C80B9D2A4408D10052
:100570004308D0004208CF004108CE004E08B63CE8
:10058000CE00FA014F08D200CF170310CF0CD00CC9
:10059000D10CFA0CF90CF80CF70CCE0BC52AD21FB3
:1005A000DC2AF709F809F909FA09F70A0319F80A20
:1005B0000319F90A0319FA0A7A08C4007908C30072
:1005C0007808C2007708C100C41FF32AC603C61604
:1005D000C109C209C309C409C10A0319C20A03191E
:1005E000C30A0319C40A3B30CD009A30CC00CA308C
:1005F000CB00CA010A30C80045080319C60A4408DE
:10060000D1004308D0004208CF004108CE004D0879
:10061000D5004C08D4004B08D3004A08D20055221C
:100620000008C100840A0008C200840A0008C30050
:10063000840A0008C400FD308407F708031D332B2B
:10064000450A48020319332B46080319352B0F3985
:10065000480203192D2B0318652BC61B652B461B5F
:10066000352B2030612B2030C605C61E432BC61209
:100670004508031DC6037708C6002D30CE00D620DE
:100680004608F700C60145084802031D512B7708AC
:10069000C6002E30CE00D6204608F7002030C60512
:1006A00000303030C61E612BC6124508031DC6033C
:1006B0007708C6002D30CE00D6204608F700C601C8
:1006C0003030F7077708CE00D6204D08D1004C080F
:1006D000D0004B08CF004A08CE00D501D401D30189
:1006E0000A30D20055227A08CD007908CC0078086B
:1006F000CB007708CA00C80BFF2A8A110A12322CD5
:100700000F08FA000E08F7000F087A02031D802B6D
:100710007708A9007A08AA00AB01AC018F018E010D
:10072000FF30C200C100C4012D08C3001030C50055
:10073000F701FA01C20CC10C031CA42B4308F707F4
:100740000318FA0A4408FA07FA0CF70CF90CF80C2B
:10075000C50B9A2B7808A90779080318790FAA07FF
:10076000003003180130AB07003003180130AC072C
:10077000AD012C08C4002B08C3002A08C2002908B8
:10078000C100B630F700FA01F901F801410842044E
:1007900043044404031DCE2BF701DB2B0310F81B8D
:1007A000DA2BC10DC20DC30DC40DFA0DF90DF80DF4
:1007B000F70BCE2BF8137A08D1007908D00078080F
:1007C000CF007708CE00BD30D5003730D4000630DA
:1007D000D3006E30D20016217708C1007808C2001D
:1007E0007908C3007A08C400C8007908C7007808EF
:1007F000C6007708C500CC01CB01CA018130C90011
:100800008B217A08B5007908B4007808B30077081E
:10081000B200C801C7017030C6008430C500350879
:10082000CC003408CB003308CA003208C9008B2141
:100830007A08B5007908B4007808B3007708B200E8
:100840000630CF000130D000AF2089308400350859
:10085000C4003408C3003308C2003208C1000230AB
:10086000C500972A0C118A110A12252884018313C6
:100870001F30830583161F149F141F159F118312A9
:10088000A901AA01AB01AC01AD01B201B301B401F0
:10089000B5018316091283129412013094000030BE
:1008A00083169400B5308312900083161F149F1492
:1008B0001F159F1183121F1083160C150C14C030C6
:1008C00083128B0400308316860083128610061173
:1008D0000610A8018B1BA8178B130F30CF00C12067
:1008E000A81B8B170130B6003608033C031C8C2C68
:1008F000A8018B1BA8178B130330D6008820A81BD8
:100900008B17A8018B1BA8178B130530CF00C120B4
:10091000A81B8B17B60A742CA8018B1BA8178B1366
:100920000230D6008820A81B8B17B6013608033C7E
:10093000031CA92C36083E20B700A8018B1BA81762
:100940008B13D3013708D4009420A81B8B17B60A49
:10095000962C97010630970096019B010030831674
:1009600086000730870083128601B60136085120C1
:10097000B60AF700A8018B1BA8178B137708CE00C7
:10098000D620A81B8B1711303602031DB62CC72C9E
:02099000630002
:02400E00393F38
:00000001FF
;PIC16F877
